{
  "address": "0x69786cdD518767F29896fE8Ef2A2173E37588F9d",
  "abi": [
    {
      "inputs": [
        {
          "internalType": "address",
          "name": "priceFeedAddress",
          "type": "address"
        }
      ],
      "stateMutability": "nonpayable",
      "type": "constructor"
    },
    {
      "inputs": [],
      "name": "FundMe__NotOwner",
      "type": "error"
    },
    {
      "stateMutability": "payable",
      "type": "fallback"
    },
    {
      "inputs": [],
      "name": "MINIMUM_USD",
      "outputs": [
        {
          "internalType": "uint256",
          "name": "",
          "type": "uint256"
        }
      ],
      "stateMutability": "view",
      "type": "function"
    },
    {
      "inputs": [],
      "name": "cheaperWithdraw",
      "outputs": [],
      "stateMutability": "payable",
      "type": "function"
    },
    {
      "inputs": [],
      "name": "fund",
      "outputs": [],
      "stateMutability": "payable",
      "type": "function"
    },
    {
      "inputs": [
        {
          "internalType": "address",
          "name": "funder",
          "type": "address"
        }
      ],
      "name": "getAddressToContribution",
      "outputs": [
        {
          "internalType": "uint256",
          "name": "",
          "type": "uint256"
        }
      ],
      "stateMutability": "view",
      "type": "function"
    },
    {
      "inputs": [
        {
          "internalType": "uint256",
          "name": "index",
          "type": "uint256"
        }
      ],
      "name": "getFunder",
      "outputs": [
        {
          "internalType": "address",
          "name": "",
          "type": "address"
        }
      ],
      "stateMutability": "view",
      "type": "function"
    },
    {
      "inputs": [],
      "name": "getOwner",
      "outputs": [
        {
          "internalType": "address",
          "name": "",
          "type": "address"
        }
      ],
      "stateMutability": "view",
      "type": "function"
    },
    {
      "inputs": [],
      "name": "getPriceFeed",
      "outputs": [
        {
          "internalType": "contract AggregatorV3Interface",
          "name": "",
          "type": "address"
        }
      ],
      "stateMutability": "view",
      "type": "function"
    },
    {
      "inputs": [
        {
          "internalType": "address",
          "name": "",
          "type": "address"
        }
      ],
      "name": "s_addressToContribution",
      "outputs": [
        {
          "internalType": "uint256",
          "name": "",
          "type": "uint256"
        }
      ],
      "stateMutability": "view",
      "type": "function"
    },
    {
      "inputs": [
        {
          "internalType": "address",
          "name": "_address",
          "type": "address"
        }
      ],
      "name": "showContribution",
      "outputs": [
        {
          "internalType": "uint256",
          "name": "",
          "type": "uint256"
        }
      ],
      "stateMutability": "view",
      "type": "function"
    },
    {
      "inputs": [],
      "name": "withdraw",
      "outputs": [],
      "stateMutability": "nonpayable",
      "type": "function"
    },
    {
      "stateMutability": "payable",
      "type": "receive"
    }
  ],
  "transactionHash": "0xb175daaad94c6979ef723821892718dbe40689f9ad2e3f1d4015e4addcc187a7",
  "args": [
    "0x8A753747A1Fa494EC906cE90E9f37563A8AF630e"
  ],
  "numDeployments": 3,
  "solcInputHash": "8575c17d1efce06deab3cb2dc6c0c68c",
  "bytecode": "0x60a06040523480156200001157600080fd5b506040516200137338038062001373833981810160405281019062000037919062000120565b3373ffffffffffffffffffffffffffffffffffffffff1660808173ffffffffffffffffffffffffffffffffffffffff1660601b8152505080600260006101000a81548173ffffffffffffffffffffffffffffffffffffffff021916908373ffffffffffffffffffffffffffffffffffffffff1602179055505062000152565b600080fd5b600073ffffffffffffffffffffffffffffffffffffffff82169050919050565b6000620000e882620000bb565b9050919050565b620000fa81620000db565b81146200010657600080fd5b50565b6000815190506200011a81620000ef565b92915050565b600060208284031215620001395762000138620000b6565b5b6000620001498482850162000109565b91505092915050565b60805160601c6111ed620001866000396000818161037901528181610672015281816106c201526108b801526111ed6000f3fe6080604052600436106100955760003560e01c8063893d20e811610059578063893d20e8146101a75780639e87a5cd146101d2578063b60d4288146101fd578063be2693f014610207578063d7b4750c14610211576100a4565b80633ccfd60b146100ae5780633e71aa25146100c55780635e48aac51461010257806368f520161461013f5780636b69a5921461017c576100a4565b366100a4576100a261024e565b005b6100ac61024e565b005b3480156100ba57600080fd5b506100c3610377565b005b3480156100d157600080fd5b506100ec60048036038101906100e79190610b7b565b6105b7565b6040516100f99190610bc1565b60405180910390f35b34801561010e57600080fd5b5061012960048036038101906101249190610b7b565b6105cf565b6040516101369190610bc1565b60405180910390f35b34801561014b57600080fd5b5061016660048036038101906101619190610b7b565b610618565b6040516101739190610bc1565b60405180910390f35b34801561018857600080fd5b50610191610661565b60405161019e9190610bc1565b60405180910390f35b3480156101b357600080fd5b506101bc61066e565b6040516101c99190610beb565b60405180910390f35b3480156101de57600080fd5b506101e7610696565b6040516101f49190610c65565b60405180910390f35b61020561024e565b005b61020f6106c0565b005b34801561021d57600080fd5b5061023860048036038101906102339190610cac565b61094e565b6040516102459190610beb565b60405180910390f35b6802b5e3af16b188000061028d600260009054906101000a900473ffffffffffffffffffffffffffffffffffffffff163461099590919063ffffffff16565b10156102ce576040517f08c379a00000000000000000000000000000000000000000000000000000000081526004016102c590610d36565b60405180910390fd5b6000339080600181540180825580915050600190039060005260206000200160009091909190916101000a81548173ffffffffffffffffffffffffffffffffffffffff021916908373ffffffffffffffffffffffffffffffffffffffff16021790555034600160003373ffffffffffffffffffffffffffffffffffffffff1673ffffffffffffffffffffffffffffffffffffffff16815260200190815260200160002081905550565b7f000000000000000000000000000000000000000000000000000000000000000073ffffffffffffffffffffffffffffffffffffffff163373ffffffffffffffffffffffffffffffffffffffff16146103fc576040517f579610db00000000000000000000000000000000000000000000000000000000815260040160405180910390fd5b60005b6000805490508110156104a757600080828154811061042157610420610d56565b5b9060005260206000200160009054906101000a900473ffffffffffffffffffffffffffffffffffffffff1690506000600160008373ffffffffffffffffffffffffffffffffffffffff1673ffffffffffffffffffffffffffffffffffffffff1681526020019081526020016000208190555050808061049f90610db4565b9150506103ff565b50600067ffffffffffffffff8111156104c3576104c2610dfd565b5b6040519080825280602002602001820160405280156104f15781602001602082028036833780820191505090505b5060009080519060200190610507929190610a71565b5060003373ffffffffffffffffffffffffffffffffffffffff164760405161052e90610e5d565b60006040518083038185875af1925050503d806000811461056b576040519150601f19603f3d011682016040523d82523d6000602084013e610570565b606091505b50509050806105b4576040517f08c379a00000000000000000000000000000000000000000000000000000000081526004016105ab90610ebe565b60405180910390fd5b50565b60016020528060005260406000206000915090505481565b6000600160008373ffffffffffffffffffffffffffffffffffffffff1673ffffffffffffffffffffffffffffffffffffffff168152602001908152602001600020549050919050565b6000600160008373ffffffffffffffffffffffffffffffffffffffff1673ffffffffffffffffffffffffffffffffffffffff168152602001908152602001600020549050919050565b6802b5e3af16b188000081565b60007f0000000000000000000000000000000000000000000000000000000000000000905090565b6000600260009054906101000a900473ffffffffffffffffffffffffffffffffffffffff16905090565b7f000000000000000000000000000000000000000000000000000000000000000073ffffffffffffffffffffffffffffffffffffffff163373ffffffffffffffffffffffffffffffffffffffff1614610745576040517f579610db00000000000000000000000000000000000000000000000000000000815260040160405180910390fd5b6000808054806020026020016040519081016040528092919081815260200182805480156107c857602002820191906000526020600020905b8160009054906101000a900473ffffffffffffffffffffffffffffffffffffffff1673ffffffffffffffffffffffffffffffffffffffff168152602001906001019080831161077e575b5050505050905060005b81518110156108535760008282815181106107f0576107ef610d56565b5b602002602001015190506000600160008373ffffffffffffffffffffffffffffffffffffffff1673ffffffffffffffffffffffffffffffffffffffff1681526020019081526020016000208190555050808061084b90610db4565b9150506107d2565b50600067ffffffffffffffff81111561086f5761086e610dfd565b5b60405190808252806020026020018201604052801561089d5781602001602082028036833780820191505090505b50600090805190602001906108b3929190610a71565b5060007f000000000000000000000000000000000000000000000000000000000000000073ffffffffffffffffffffffffffffffffffffffff16476040516108fa90610e5d565b60006040518083038185875af1925050503d8060008114610937576040519150601f19603f3d011682016040523d82523d6000602084013e61093c565b606091505b505090508061094a57600080fd5b5050565b600080828154811061096357610962610d56565b5b9060005260206000200160009054906101000a900473ffffffffffffffffffffffffffffffffffffffff169050919050565b6000806109a1836109d1565b90506000670de0b6b3a764000082866109ba9190610ede565b6109c49190610f67565b9050809250505092915050565b6000808273ffffffffffffffffffffffffffffffffffffffff1663feaf968c6040518163ffffffff1660e01b815260040160a06040518083038186803b158015610a1a57600080fd5b505afa158015610a2e573d6000803e3d6000fd5b505050506040513d601f19601f82011682018060405250810190610a529190611025565b5050509150506402540be40081610a6991906110a0565b915050919050565b828054828255906000526020600020908101928215610aea579160200282015b82811115610ae95782518260006101000a81548173ffffffffffffffffffffffffffffffffffffffff021916908373ffffffffffffffffffffffffffffffffffffffff16021790555091602001919060010190610a91565b5b509050610af79190610afb565b5090565b5b80821115610b14576000816000905550600101610afc565b5090565b600080fd5b600073ffffffffffffffffffffffffffffffffffffffff82169050919050565b6000610b4882610b1d565b9050919050565b610b5881610b3d565b8114610b6357600080fd5b50565b600081359050610b7581610b4f565b92915050565b600060208284031215610b9157610b90610b18565b5b6000610b9f84828501610b66565b91505092915050565b6000819050919050565b610bbb81610ba8565b82525050565b6000602082019050610bd66000830184610bb2565b92915050565b610be581610b3d565b82525050565b6000602082019050610c006000830184610bdc565b92915050565b6000819050919050565b6000610c2b610c26610c2184610b1d565b610c06565b610b1d565b9050919050565b6000610c3d82610c10565b9050919050565b6000610c4f82610c32565b9050919050565b610c5f81610c44565b82525050565b6000602082019050610c7a6000830184610c56565b92915050565b610c8981610ba8565b8114610c9457600080fd5b50565b600081359050610ca681610c80565b92915050565b600060208284031215610cc257610cc1610b18565b5b6000610cd084828501610c97565b91505092915050565b600082825260208201905092915050565b7f4d696e696d756d206e6f74206d65742e00000000000000000000000000000000600082015250565b6000610d20601083610cd9565b9150610d2b82610cea565b602082019050919050565b60006020820190508181036000830152610d4f81610d13565b9050919050565b7f4e487b7100000000000000000000000000000000000000000000000000000000600052603260045260246000fd5b7f4e487b7100000000000000000000000000000000000000000000000000000000600052601160045260246000fd5b6000610dbf82610ba8565b91507fffffffffffffffffffffffffffffffffffffffffffffffffffffffffffffffff821415610df257610df1610d85565b5b600182019050919050565b7f4e487b7100000000000000000000000000000000000000000000000000000000600052604160045260246000fd5b600081905092915050565b50565b6000610e47600083610e2c565b9150610e5282610e37565b600082019050919050565b6000610e6882610e3a565b9150819050919050565b7f43616c6c206661696c6564000000000000000000000000000000000000000000600082015250565b6000610ea8600b83610cd9565b9150610eb382610e72565b602082019050919050565b60006020820190508181036000830152610ed781610e9b565b9050919050565b6000610ee982610ba8565b9150610ef483610ba8565b9250817fffffffffffffffffffffffffffffffffffffffffffffffffffffffffffffffff0483118215151615610f2d57610f2c610d85565b5b828202905092915050565b7f4e487b7100000000000000000000000000000000000000000000000000000000600052601260045260246000fd5b6000610f7282610ba8565b9150610f7d83610ba8565b925082610f8d57610f8c610f38565b5b828204905092915050565b600069ffffffffffffffffffff82169050919050565b610fb781610f98565b8114610fc257600080fd5b50565b600081519050610fd481610fae565b92915050565b6000819050919050565b610fed81610fda565b8114610ff857600080fd5b50565b60008151905061100a81610fe4565b92915050565b60008151905061101f81610c80565b92915050565b600080600080600060a0868803121561104157611040610b18565b5b600061104f88828901610fc5565b955050602061106088828901610ffb565b945050604061107188828901611010565b935050606061108288828901611010565b925050608061109388828901610fc5565b9150509295509295909350565b60006110ab82610fda565b91506110b683610fda565b9250827f7fffffffffffffffffffffffffffffffffffffffffffffffffffffffffffffff04821160008413600084131616156110f5576110f4610d85565b5b817f8000000000000000000000000000000000000000000000000000000000000000058312600084126000841316161561113257611131610d85565b5b827f8000000000000000000000000000000000000000000000000000000000000000058212600084136000841216161561116f5761116e610d85565b5b827f7fffffffffffffffffffffffffffffffffffffffffffffffffffffffffffffff05821260008412600084121616156111ac576111ab610d85565b5b82820290509291505056fea264697066735822122014164ed7dd1d924fad65fa9a44a0617ad2ff58e8551d4df1fcd5535a3a67157564736f6c63430008080033",
  "devdoc": {
    "author": "Nathan Alexander",
    "details": "This implements price feeds as our library",
    "kind": "dev",
    "methods": {
      "fund()": {
        "details": "Funders will be added to the map and the funders array"
      }
    },
    "title": "A contract for crowdfunding",
    "version": 1
  },
  "userdoc": {
    "kind": "user",
    "methods": {
      "fund()": {
        "notice": "This function allows function callers to fund the contract"
      }
    },
    "notice": "This contract is to demo a sample funding contract",
    "version": 1
  },
  "storageLayout": {
    "storage": [
      {
        "astId": 62,
        "contract": "contracts/FundMe.sol:FundMe",
        "label": "s_funders",
        "offset": 0,
        "slot": "0",
        "type": "t_array(t_address)dyn_storage"
      },
      {
        "astId": 66,
        "contract": "contracts/FundMe.sol:FundMe",
        "label": "s_addressToContribution",
        "offset": 0,
        "slot": "1",
        "type": "t_mapping(t_address,t_uint256)"
      },
      {
        "astId": 71,
        "contract": "contracts/FundMe.sol:FundMe",
        "label": "s_priceFeed",
        "offset": 0,
        "slot": "2",
        "type": "t_contract(AggregatorV3Interface)45"
      }
    ],
    "types": {
      "t_address": {
        "encoding": "inplace",
        "label": "address",
        "numberOfBytes": "20"
      },
      "t_array(t_address)dyn_storage": {
        "base": "t_address",
        "encoding": "dynamic_array",
        "label": "address[]",
        "numberOfBytes": "32"
      },
      "t_contract(AggregatorV3Interface)45": {
        "encoding": "inplace",
        "label": "contract AggregatorV3Interface",
        "numberOfBytes": "20"
      },
      "t_mapping(t_address,t_uint256)": {
        "encoding": "mapping",
        "key": "t_address",
        "label": "mapping(address => uint256)",
        "numberOfBytes": "32",
        "value": "t_uint256"
      },
      "t_uint256": {
        "encoding": "inplace",
        "label": "uint256",
        "numberOfBytes": "32"
      }
    }
  }
}